:100000000C945D000C94CE010C947A000C947A0050
:100010000C947A000C947A000C947A000C947A0078
:100020000C947A000C947A000C947A000C947A0068
:100030000C947A000C947A000C947A000C947A0058
:100040000C947A000C947A000C947A000C947A0048
:100050000C947A000C947A000C947A000C947A0038
:100060000C947A000C947A000902120001010080BD
:100070001909040000000000000012011001FF0037
:100080000008C016DC050401010200010E03550042
:10009000530042006100730070001C03770077007A
:1000A00077002E00660069007300630068006C0032
:1000B0002E00640065000403090411241FBECFEF65
:1000C000D8E0DEBFCDBF11E0A0E0B1E0EEE1F3E1AA
:1000D00002C005900D92A230B107D9F721E0A2E04D
:1000E000B1E001C01D92AC34B207E1F70E947A0979
:1000F0000C948D090C940000CF93DF93609128013C
:10010000635067FD14C0209125018CE090E0821BB4
:100110009109EC01C45DDE4F809124018D3209F418
:1001200052C08091020187FD93C0109228018091F6
:10013000010184FF3BC0C0910001CF3FB9F1C9303C
:1001400008F469C088EF8C0F80930001909118012A
:1001500088E8892780931801C8E08091020187FD13
:10016000A1C0209126013091270186FF68C0A9E136
:10017000B1E0F9018C2F94919D9331968150D9F77C
:100180008FEF8C0F90E00196280F391F30932701D5
:10019000209326016C2F89E191E00E94CA0184E03E
:1001A0008C0F8C3009F047C08093010194E189B134
:1001B000847131F49150D9F71092290110922301E2
:1001C000DF91CF910895683009F0AFCF83EC809331
:1001D00018018AE5809301011092020188818076DE
:1001E00009F041C08A81109221019981911147C083
:1001F0001092220121E231E082E030932701209326
:1002000026019F81911104C09E81981708F4892FBF
:10021000809300018ACF109200019091180188E824
:10022000892780931801C11198CF60E089E191E09E
:100230000E94CA0184E09FEF90930001B5CFD901DD
:10024000E9E1F1E08C2F9D9191938150E1F798CFF6
:10025000CE010E94A3088F3F09F1882309F465CFDE
:100260001092000162CFCE010E948A068F3F49F6AC
:10027000988197FD2DC090E890930201C9CF9530E9
:1002800009F1963039F1983089F1993099F181E08E
:100290009A3009F080E021E231E0AFCF8EE1809327
:1002A000010143CF6C2F89E191E00E942408C82FFF
:1002B000893008F46FCF8FEF809300018EE1809337
:1002C000010174CF8093290121E231E080E095CFD4
:1002D0008E81D1CF9B819130D9F0923089F09330CB
:1002E000F9F080E090E4909302018BCF2BE231E0B3
:1002F00081E083CF80932B0121E231E080E07DCF4C
:1003000088E690E0909327018093260182E1EACF6E
:100310008AE790E0909327018093260182E1E2CF63
:10032000811108C086EB90E090932701809326010D
:1003300084E0D8CF813051F0823099F68CE890E09B
:1003400090932701809326018EE0CCCF8AE990E03C
:1003500090932701809326018CE1C4CFE9E6F0E079
:10036000808183608083E89A0895A82FB92F80E068
:1003700090E041E050EA609530E009C02D9182277D
:100380009795879510F084279527305EC8F36F5FA7
:10039000A8F30895EADF8D939D930895CF93CFB787
:1003A000CF93C3954C9BE9F74C9B09C04C9B07C06E
:1003B0004C9B05C04C9B03C04C9B01C0A1C0DF936C
:1003C000C0912501DD27C45DDE4F4C9B02C0DF914B
:1003D000EBCF2F930F931F9309B12FEF04FB20F95D
:1003E0004F933F9319B14FEF012704FB21F93BE0F5
:1003F00031C04E7F012F19B1216028C0102F4D7FD1
:100400002260000009B129C04B7F2460012F000049
:1004100019B12BC019B1477F28602AC04F7E09B19E
:1004200020612CC04F7D19B120622FC04F7B09B1D4
:10043000206432C0422709B149934FEF00001027D2
:1004400014FB20F919B11471C9F1297F91F2012728
:1004500004FB21F909B1237F89F2315058F11027AB
:1004600014FB22F919B1277E79F2012704FB23F945
:100470002F7C81F209B1102714FB24F92F7971F236
:1004800000C019B1012704FB25F92F7359F200C0F0
:1004900009B1102714FB26F9223040F200C019B12F
:1004A000012704FB27F9243028F64F77206819B17B
:1004B0000000F9CF11E01CBB002717C03B5031955D
:1004C000C31BD04011E01CBB0881033CE9F00B3496
:1004D000D9F0209123011981110F1213EDCF0936A4
:1004E00041F10D3211F0013E39F700932A013F919D
:1004F0004F911F910F912F91DF91CCB3C0FD51CF40
:10050000CF91CFBFCF91189520912A01222379F363
:1005100010912801112311F5343012F13093280184
:1005200020932401109125013BE0311B30932501DC
:1005300017C00091280101308CF40AE530910101C7
:1005400034FD10C000930101C8E1D1E00FC0279530
:10055000A8F45150A9F4220F0000F9CF4AE503C0D6
:1005600042ED01C0432FC4E1D0E032E01AB1146182
:100570005C9A1AB90BB120E414E15F93012756E0AD
:100580000BB9279520F4515021F4220FF9CF012700
:1005900056E000003B5A0BB9D0F2279528F4515091
:1005A00029F4220F0000F9CF012756E027950BB957
:1005B00020F4515021F4220FF9CF012756E0299160
:1005C00033230BB921F60B7E10912901110FC6516F
:1005D000D0400BB911F01093230111E01CBB006156
:1005E0001AB11B7E402F4B7E5F9100C000C00BB93B
:1005F0001AB94BB97CCF582F48E080E057FD18C09E
:100600002B98550F880F1C998F5F2D9A36B5209126
:10061000480196B5931B9217E0F32D9836B52091BB
:10062000480196B5931B9217E0F3415039F70895AE
:100630002B9AE7CF8EBD0DB407FEFDCF8EB5089582
:10064000DC01CB0121E1B695A795979587952A9571
:10065000D1F7209146012817D9F080934601E09107
:100660004301F09144018DE40995E0914301F0913B
:10067000440180E00995E0914301F09144018091AB
:1006800046010995E0914301F091440180E009940D
:100690000895809145018CBD809142018DBD0895E2
:1006A0008823C9F0883008F04BC02BEF32E030933C
:1006B000440120934301843079F190F1863049F16F
:1006C000B8F1873029F583E0809348018091470194
:1006D0008F3FA1F008958AE193E0909344018093C5
:1006E000430181E08093480182E58093450181E0E8
:1006F00080934201809147018F3F61F78BEF92E039
:10070000909344018093430182E0809348010895CF
:1007100080EC80934801DACF88E180934801D6CFFE
:10072000823051F08330A1F780E380934801CECF2F
:100730008CE080934801CACF80E680934801C6CF01
:100740002AE133E0309344012093430110924201A7
:1007500091E090934801893059F070F08B3021F08E
:100760008C3011F69093420181E580934501AECF24
:1007700082E580934501AACF883009F0B5CF83E5A3
:1007800080934501A3CF26B59091480186B5821B81
:100790008917E0F3089584B18C6284B98091470190
:1007A00081111CC02A982D9826B59091480186B5D4
:1007B000821B8917E0F32A9A26B59091480186B5E5
:1007C000821B8917E0F32A9880914301909144019C
:1007D0008A51934019F11092460108952A9A2D9852
:1007E00026B59091480186B5821B8917E0F32A98B7
:1007F00026B59091480186B5821B8917E0F32A9AA5
:1008000026B59091480186B5821B8917E0F3809147
:100810004301909144018A519340E9F6809145014A
:100820008CBD809142018DBD10924601089584B126
:10083000837D84B985B1837D85B91CBC0895CF9330
:10084000DF93109247010E94CB03E0914301F091A6
:100850004401C0E18CEA0995E0914301F091440123
:1008600083E50995E0914301F091440180E0099509
:10087000D82FE0914301F091440180E00995D335F0
:1008800009F471C01CBC26B59091480186B5821B45
:100890008917E0F32A9A26B59091480186B5821B04
:1008A0008917E0F32A9826B59091480186B5821BF6
:1008B0008917E0F3E0914301F091440183E0EA31CC
:1008C000F80709F445C0C15029F68FEF809347011E
:1008D000EA51F34009F44BC08BEF92E0909344014E
:1008E0008093430182E0809348010E94CB03C0E1E2
:1008F000E0914301F09144018CEA0995E0914301B4
:10090000F091440183E50995E0914301F0914401A0
:1009100080E00995E0914301F091440180E0099560
:10092000893609F12D9A26B59091480186B5821B2A
:100930008917E0F32D9826B59091480186B5821B62
:100940008917E0F3C150A1F681E0DF91CF910895BE
:10095000809145018CBD809142018DBDE0914301A4
:10096000F0914401B0CF80E0DF91CF9108951CBC9D
:10097000B3CFCF92DF92EF92FF926B017C010E9486
:100980002003809147018823E1F0E0914301F09139
:10099000440180E20995E0914301F09144018D2DDD
:1009A0000995E0914301F09144018C2D0995E09166
:1009B0004301F091440180E0FF90EF90DF90CF90F1
:1009C00009948C2D8170880F880F880FE091430166
:1009D000F091440180620995D701C60129E0B695DE
:1009E000A795979587952A95D1F7E0914301F091C6
:1009F00044010995D701C601B695A79597958795A6
:100A0000E0914301F09144010995D1CFCF92DF925B
:100A1000EF92FF921F93CF93DF936B017C01C42F62
:100A2000D22F10914701111149C00E9420038C2D33
:100A30008170880F880F880FE0914301F091440185
:100A400080640995E0914301F0914401D701C6010A
:100A500029E0B695A795979587952A95D1F7099599
:100A6000E0914301F0914401D701C601B695A795E5
:100A7000979587950995E0914301F09144018C2F5A
:100A80000995DD2391F0CF3799F1D6B5CEE1C701B5
:100A9000B6010E94B9048F3741F486B58D1B8D33A2
:100AA000B0F3D6B5C15099F711E0812FDF91CF9106
:100AB0001F91FF90EF90DF90CF900895E091430158
:100AC000F091440180E40995E0914301F0914401E3
:100AD0008D2D0995E0914301F09144018C2D0995EC
:100AE000E0914301F09144018C2F099510E0DDCF96
:100AF0008FE00E941506D9CFCF92DF92EF92FF923E
:100B0000CF93DF936B017C01C42F0E942003E091FF
:100B10004301F09144018CE40995D701C60129E015
:100B2000B695A795979587952A95D1F7E0914301BA
:100B3000F09144010995D701C601B695A7959795FF
:100B40008795E0914301F09144010995E0914301BB
:100B5000F091440180E00995CF3FF9F0D6B5CEE1A0
:100B6000C701B6010E94B9048F3F79F486B58D1B89
:100B70008D33B0F3D6B5C15099F781E0DF91CF91B5
:100B8000FF90EF90DF90CF90089580E0DF91CF91BC
:100B9000FF90EF90DF90CF9008958FE00E941506B0
:100BA00080E0ECCFCF93DF93EC01E0914301F09133
:100BB000440180EA0995E0914301F09144018D2FB1
:100BC0000995E0914301F09144018C2F0995E09142
:100BD0004301F091440180E0DF91CF9109941F938C
:100BE000CF93DF93D82F192FC62FE0914301F091B7
:100BF000440180EC0995E0914301F0914401812F7B
:100C00000995E0914301F09144018D2F0995E09100
:100C10004301F09144018C2F09958EE10E94150645
:100C200080E0DF91CF911F910895882349F030E053
:100C300026B596B5921B9C33E0F33F5F8313F8CF44
:100C40000895259A23982B9A50E217D05A95E9F7E0
:100C50000895AC0188E605D0842F03D089E601D041
:100C6000852F0FD028E030E0382780FB869506D00E
:100C70002A95D1F730FB02D000D0689423982B9AA4
:100C800016F02B98239AE0914A01F0914B0131978D
:100C9000F0F72D9AE3B1E3FBE0914A01F0914B01AB
:100CA0003197F0F72D98089520ECE7DF46F42A9568
:100CB000E1F780E02AE1E5DF2A95E9F7DECF28E0D9
:100CC00030E0DBDF869587F938272A95D1F7D5DF25
:100CD00027F9322772F3D1DFD0CFDB01742FB9DFD0
:100CE00084E2BFDFE1DF8D937A95D1F70895DB01D0
:100CF000742FAFDF83EFB5DF8DE1B3DF84E6B1DFC3
:100D00008D91AFDF82E7ADDFCFDF8078D9F77A95BD
:100D100089F70895CF93DF93EC018981813089F1C0
:100D2000823009F4A3C0833009F45DC08430B1F18E
:100D3000873009F47EC0853009F4F2C0863009F4AA
:100D40009AC0883009F4C9C0893009F4EFC08A30EC
:100D500009F416C18B3009F43EC18C3009F44FC13F
:100D60008D3009F466C18E3009F469C18F3009F401
:100D7000EEC0803109F40BC18F3709F421C180E046
:100D800029C0329B52C080910E010E9450031092E4
:100D90000D0143980E94CB0380E01CC080910D019F
:100DA00081110EC08A819B81092E000CAA0BBB0BFE
:100DB0008093090190930A01A0930B01B0930C0159
:100DC0008E819F81909308018093070182E0809338
:100DD0000F018FEF20E131E03093270120932601AE
:100DE000DF91CF910895E0914301F09144018A8110
:100DF000099580931001E0914301F09144018B81AA
:100E0000099580931101E0914301F09144018C8197
:100E1000099580931201E0914301F09144018D8185
:100E200009958093130184E0D5CF85E00E9450039B
:100E3000AECF80910D0181110EC08A819B81092E58
:100E4000000CAA0BBB0B8093090190930A01A0939D
:100E50000B01B0930C018E819F81909308018093C8
:100E6000070183E080930F018FEFB4CF0E94170436
:100E7000439A80E0AFCF80910D0181110EC08A812D
:100E80009B81092E000CAA0BBB0B80930901909348
:100E90000A01A0930B01B0930C013C812D81822F9C
:100EA0008F7080930401822F807F40E1849FC00176
:100EB0001124830F911D909306018093050120FD5D
:100EC000809303018E819F81909308018093070195
:100ED00081E080930F018FEF7DCF80910D01811113
:100EE0000EC08A819B81092E000CAA0BBB0B80933C
:100EF000090190930A01A0930B01B0930C01109289
:100F0000060110920501109204018E819F81909339
:100F100008018093070184E080930F018FEF5ACF7F
:100F20000E941F048093100181E054CF81E08093E0
:100F30000D018A819B81AC81BD81809309019093D1
:100F40000A01A0930B01B0930C0180E043CF8A818A
:100F50009B81092E000CAA0BBB0B80930901909377
:100F60000A01A0930B01B0930C018E819F81909395
:100F700008018093070185E080930F018FEF2ACF4E
:100F80008A8180930E011092100181E023CF8A8123
:100F90009B81092E000CAA0BBB0B80930901909337
:100FA0000A01A0930B01B0930C018E819F81909355
:100FB00008018093070186E080930F018FEF0ACF2D
:100FC00081E0809310011092110110921201109291
:100FD000130184E0FFCE8A819B8190934B01809323
:100FE0004A012A9A229A83E00E9415062A98439879
:100FF00080E10E9415060E94210680E0EBCE80EC85
:101000000E94310680E00E9431068AE00E941506A7
:101010002A9A85E00E9415062A9885E00E94150606
:1010200084B1837D84B985B1837D85B9439A80E09D
:10103000D1CE0E9454068093100181E0CBCE8A81EC
:101040000E94310680E0C6CEFF920F931F93CF938C
:10105000DF93582F792FF62E20910F013EEF320F9C
:10106000323050F0253009F450C08FEFDF91CF912E
:101070001F910F91FF9008956623B9F180910901A6
:1010800090910A01A0910B01B0910C01C52FD72FAF
:101090003FEF360F8E01030F111D1CC00E94D205B9
:1010A00088838091090190910A01A0910B01B09170
:1010B0000C010196A11DB11D8093090190930A01B5
:1010C000A0930B01B0930C01C017D10759F02091E8
:1010D0000F012196223011F7BC01CD010E94B90405
:1010E0008883DFCF87E08F1548F010920F018F2D96
:1010F000DF91CF911F910F91FF9008958F2DDF9178
:10110000CF911F910F91FF900895462F682F8091E6
:10111000090190910A010E946D0680910901909148
:101120000A01A0910B01B0910C018F0D911DA11D21
:10113000B11D8093090190930A01A0930B01B09314
:101140000C018F2D93CFFF920F931F93CF93DF93BB
:10115000382F792F162F20910F01213061F0243084
:1011600051F0263009F498C08FEFDF91CF911F9195
:101170000F91FF900895112309F4BAC080910901DD
:1011800090910A01A0910B01B0910C01C32FD72FB0
:101190001150AE01410F511D8A01F12C4FC0209119
:1011A000050130910601232B09F052C021E048814E
:1011B000BC01CD010E940605209107013091080174
:1011C000215031093093080120930701232BE9F4C2
:1011D00010920F018091040181FF37C080910301BB
:1011E00090E020910501309106018217930769F183
:1011F0006091090170910A0180910B0190910C019D
:1012000048810E947C05FF24F3948091090190910C
:101210000A01A0910B01B0910C010196A11DB11D15
:101220008093090190930A01A0930B01B0930C01E4
:10123000C017D10751F120910F012196213009F4F7
:10124000AECF68810E94EF05B7CFFF24F394DDCFC6
:1012500020E04881BC01CD010E9406058091030178
:101260008150809303018111A7CF60910901709192
:101270000A0180910B0190910C0148810E947C052C
:10128000809105018093030197CF8F2DDF91CF913E
:101290001F910F91FF900895462F682F80910901AB
:1012A00090910A010E9477068091090190910A01AC
:1012B000A0910B01B0910C01810F911DA11DB11DD9
:1012C0008093090190930A01A0930B01B0930C0144
:1012D0008091070190910801811B91099093080169
:1012E00080930701892B21F410920F0181E03DCFFB
:1012F00080E03BCF1BB815B88BEF8AB99FEF94B94C
:101300001AB814B89CE097B988B983E085BD0E94EB
:0E131000AE0178940E947C00FDCFF894FFCFD0
:02131E00FF5A74
:00000001FF
